{
  "contractName": "Gobang",
  "abi": [
    {
      "constant": true,
      "inputs": [
        {
          "name": "",
          "type": "uint32"
        }
      ],
      "name": "rooms",
      "outputs": [
        {
          "name": "playerTurn",
          "type": "uint8"
        },
        {
          "name": "playStatus",
          "type": "uint8"
        },
        {
          "name": "stone_num",
          "type": "uint8"
        },
        {
          "name": "winner",
          "type": "uint8"
        }
      ],
      "payable": false,
      "stateMutability": "view",
      "type": "function"
    },
    {
      "anonymous": false,
      "inputs": [
        {
          "indexed": false,
          "name": "x",
          "type": "uint8"
        },
        {
          "indexed": false,
          "name": "y",
          "type": "uint8"
        },
        {
          "indexed": false,
          "name": "playerTurn",
          "type": "uint8"
        }
      ],
      "name": "OneStep",
      "type": "event"
    },
    {
      "anonymous": false,
      "inputs": [],
      "name": "GameStart",
      "type": "event"
    },
    {
      "anonymous": false,
      "inputs": [
        {
          "indexed": false,
          "name": "winner",
          "type": "uint8"
        }
      ],
      "name": "GameOver",
      "type": "event"
    },
    {
      "constant": false,
      "inputs": [
        {
          "name": "_roomId",
          "type": "uint32"
        }
      ],
      "name": "createRoom",
      "outputs": [],
      "payable": true,
      "stateMutability": "payable",
      "type": "function"
    },
    {
      "constant": false,
      "inputs": [
        {
          "name": "_roomId",
          "type": "uint32"
        }
      ],
      "name": "joinGame",
      "outputs": [],
      "payable": true,
      "stateMutability": "payable",
      "type": "function"
    },
    {
      "constant": false,
      "inputs": [
        {
          "name": "_x",
          "type": "uint8"
        },
        {
          "name": "_y",
          "type": "uint8"
        },
        {
          "name": "_roomId",
          "type": "uint32"
        }
      ],
      "name": "oneStep",
      "outputs": [],
      "payable": false,
      "stateMutability": "nonpayable",
      "type": "function"
    },
    {
      "constant": true,
      "inputs": [
        {
          "name": "_roomId",
          "type": "uint32"
        }
      ],
      "name": "getNewestState",
      "outputs": [
        {
          "name": "",
          "type": "uint8"
        },
        {
          "name": "",
          "type": "address"
        },
        {
          "name": "",
          "type": "address"
        },
        {
          "name": "",
          "type": "uint8"
        },
        {
          "name": "",
          "type": "uint8[15][15]"
        }
      ],
      "payable": false,
      "stateMutability": "view",
      "type": "function"
    },
    {
      "constant": false,
      "inputs": [
        {
          "name": "_roomId",
          "type": "uint32"
        }
      ],
      "name": "getMyMoney",
      "outputs": [],
      "payable": true,
      "stateMutability": "payable",
      "type": "function"
    },
    {
      "constant": true,
      "inputs": [],
      "name": "getSomething",
      "outputs": [
        {
          "name": "something",
          "type": "uint256"
        }
      ],
      "payable": false,
      "stateMutability": "view",
      "type": "function"
    }
  ],
  "bytecode": "0x6080604052620f4240600160006101000a8154816fffffffffffffffffffffffffffffffff02191690836fffffffffffffffffffffffffffffffff16021790555034801561004c57600080fd5b50611e578061005c6000396000f300608060405260043610610083576000357c0100000000000000000000000000000000000000000000000000000000900463ffffffff16806301ec3b6c14610088578063173fd9d3146100b35780632915724f1461012f5780637700c0a2146101555780637d798b651461017b578063948cdfee14610295578063fea19db5146102e2575b600080fd5b34801561009457600080fd5b5061009d610308565b6040518082815260200191505060405180910390f35b3480156100bf57600080fd5b506100e4600480360381019080803563ffffffff169060200190929190505050610327565b604051808560ff1660ff16815260200184600281111561010057fe5b60ff1681526020018360ff1660ff1681526020018260ff1660ff16815260200194505050505060405180910390f35b610153600480360381019080803563ffffffff16906020019092919050505061038b565b005b610179600480360381019080803563ffffffff16906020019092919050505061076e565b005b34801561018757600080fd5b506101ac600480360381019080803563ffffffff169060200190929190505050610a2b565b604051808660ff1660ff1681526020018573ffffffffffffffffffffffffffffffffffffffff1673ffffffffffffffffffffffffffffffffffffffff1681526020018473ffffffffffffffffffffffffffffffffffffffff1673ffffffffffffffffffffffffffffffffffffffff16815260200183600281111561022c57fe5b60ff16815260200182600f6000925b818410156102815782846020020151600f60200280838360005b83811015610270578082015181840152602081019050610255565b50505050905001926001019261023b565b925050509550505050505060405180910390f35b3480156102a157600080fd5b506102e0600480360381019080803560ff169060200190929190803560ff169060200190929190803563ffffffff169060200190929190505050610c13565b005b610306600480360381019080803563ffffffff16906020019092919050505061141a565b005b60003073ffffffffffffffffffffffffffffffffffffffff1631905090565b60006020528060005260406000206000915090508060040160009054906101000a900460ff16908060040160019054906101000a900460ff16908060140160009054906101000a900460ff16908060140160019054906101000a900460ff16905084565b60008163ffffffff161115156103a057600080fd5b60008060008363ffffffff1663ffffffff16815260200190815260200160002060000160006002811015156103d157fe5b6002020160000160009054906101000a900473ffffffffffffffffffffffffffffffffffffffff1673ffffffffffffffffffffffffffffffffffffffff1614151515610485576040517f08c379a00000000000000000000000000000000000000000000000000000000081526004018080602001828103825260128152602001807f7468697320726f6f6d20697320656d707479000000000000000000000000000081525060200191505060405180910390fd5b60008060008363ffffffff1663ffffffff16815260200190815260200160002060000160016002811015156104b657fe5b6002020160000160009054906101000a900473ffffffffffffffffffffffffffffffffffffffff1673ffffffffffffffffffffffffffffffffffffffff16141515610569576040517f08c379a000000000000000000000000000000000000000000000000000000000815260040180806020018281038252601d8152602001807f74686572652074776f20706c617965727320696e2074686520726f6f6d00000081525060200191505060405180910390fd5b600160009054906101000a90046fffffffffffffffffffffffffffffffff166fffffffffffffffffffffffffffffffff163410151515610611576040517f08c379a00000000000000000000000000000000000000000000000000000000081526004018080602001828103825260158152602001807f6e6565642031206574686572206265742066756e64000000000000000000000081525060200191505060405180910390fd5b336000808363ffffffff1663ffffffff168152602001908152602001600020600001600160028110151561064157fe5b6002020160000160006101000a81548173ffffffffffffffffffffffffffffffffffffffff021916908373ffffffffffffffffffffffffffffffffffffffff160217905550346000808363ffffffff1663ffffffff16815260200190815260200160002060000160016002811015156106b657fe5b600202016001018190555060016000808363ffffffff1663ffffffff16815260200190815260200160002060040160016101000a81548160ff021916908360028111156106ff57fe5b021790555060016000808363ffffffff1663ffffffff16815260200190815260200160002060040160006101000a81548160ff021916908360ff1602179055507f4cf2e2dcdeacb2322843921968cb0e6a97a686594cb0a4f29abb65a7ed65195260405160405180910390a150565b60008163ffffffff161115156107ec576040517f08c379a000000000000000000000000000000000000000000000000000000000815260040180806020018281038252601e8152602001807f726f6f6d206964206d7573742067726561746572207468616e207a65726f000081525060200191505060405180910390fd5b60008060008363ffffffff1663ffffffff168152602001908152602001600020600001600060028110151561081d57fe5b6002020160000160009054906101000a900473ffffffffffffffffffffffffffffffffffffffff1673ffffffffffffffffffffffffffffffffffffffff161415156108d0576040517f08c379a00000000000000000000000000000000000000000000000000000000081526004018080602001828103825260168152602001807f7468697320726f6f6d206973206e6f7420656d7074790000000000000000000081525060200191505060405180910390fd5b600160009054906101000a90046fffffffffffffffffffffffffffffffff166fffffffffffffffffffffffffffffffff163410151515610978576040517f08c379a00000000000000000000000000000000000000000000000000000000081526004018080602001828103825260158152602001807f6e6565642031206574686572206265742066756e64000000000000000000000081525060200191505060405180910390fd5b336000808363ffffffff1663ffffffff16815260200190815260200160002060000160006002811015156109a857fe5b6002020160000160006101000a81548173ffffffffffffffffffffffffffffffffffffffff021916908373ffffffffffffffffffffffffffffffffffffffff160217905550346000808363ffffffff1663ffffffff1681526020019081526020016000206000016000600281101515610a1d57fe5b600202016001018190555050565b600080600080610a39611dd8565b6000808763ffffffff1663ffffffff16815260200190815260200160002060040160009054906101000a900460ff166000808863ffffffff1663ffffffff1681526020019081526020016000206000016000600281101515610a9757fe5b6002020160000160009054906101000a900473ffffffffffffffffffffffffffffffffffffffff166000808963ffffffff1663ffffffff1681526020019081526020016000206000016001600281101515610aee57fe5b6002020160000160009054906101000a900473ffffffffffffffffffffffffffffffffffffffff166000808a63ffffffff1663ffffffff16815260200190815260200160002060040160019054906101000a900460ff166000808b63ffffffff1663ffffffff16815260200190815260200160002060050180600f80602002604051908101604052809291906000905b82821015610bfa57838201600f806020026040519081016040528092919082600f8015610be6576020028201916000905b82829054906101000a900460ff1660ff1681526020019060010190602082600001049283019260010382029150808411610baf5790505b505050505081526020019060010190610b7e565b5050505090509450945094509450945091939590929450565b600280811115610c1f57fe5b6000808363ffffffff1663ffffffff16815260200190815260200160002060040160019054906101000a900460ff166002811115610c5957fe5b14151515610ccf576040517f08c379a000000000000000000000000000000000000000000000000000000000815260040180806020018281038252600c8152602001807f47616d65206973206f766572000000000000000000000000000000000000000081525060200191505060405180910390fd5b60006002811115610cdc57fe5b6000808363ffffffff1663ffffffff16815260200190815260200160002060040160019054906101000a900460ff166002811115610d1657fe5b14151515610d8c576040517f08c379a00000000000000000000000000000000000000000000000000000000081526004018080602001828103825260118152602001807f47616d6520697320707265706172696e6700000000000000000000000000000081525060200191505060405180910390fd5b6000808263ffffffff1663ffffffff16815260200190815260200160002060000160016000808463ffffffff1663ffffffff16815260200190815260200160002060040160009054906101000a900460ff160360ff16600281101515610dee57fe5b6002020160000160009054906101000a900473ffffffffffffffffffffffffffffffffffffffff1673ffffffffffffffffffffffffffffffffffffffff163373ffffffffffffffffffffffffffffffffffffffff16141515610eb8576040517f08c379a000000000000000000000000000000000000000000000000000000000815260040180806020018281038252600d8152602001807f4e6f7420796f7572207475726e0000000000000000000000000000000000000081525060200191505060405180910390fd5b610ec2838361171b565b1515610f36576040517f08c379a000000000000000000000000000000000000000000000000000000000815260040180806020018281038252600f8152602001807f4f7574206f6620626f756e64617279000000000000000000000000000000000081525060200191505060405180910390fd5b60008060008363ffffffff1663ffffffff1681526020019081526020016000206005018460ff16600f81101515610f6957fe5b018360ff16600f81101515610f7a57fe5b602091828204019190069054906101000a900460ff1660ff16141515611008576040517f08c379a00000000000000000000000000000000000000000000000000000000081526004018080602001828103825260178152602001807f43616e206e6f74206d6f7665206368657373206865726500000000000000000081525060200191505060405180910390fd5b6000808263ffffffff1663ffffffff16815260200190815260200160002060040160009054906101000a900460ff166000808363ffffffff1663ffffffff1681526020019081526020016000206005018460ff16600f8110151561106857fe5b018360ff16600f8110151561107957fe5b602091828204019190066101000a81548160ff021916908360ff1602179055506000808263ffffffff1663ffffffff168152602001908152602001600020601401600081819054906101000a900460ff168092919060010191906101000a81548160ff021916908360ff160217905550507ff47c0beb95fa0833c28700505495aaa8bcb1fd27baf9676ce6be18b4d5ef6f7d83836000808563ffffffff1663ffffffff16815260200190815260200160002060040160009054906101000a900460ff16604051808460ff1660ff1681526020018360ff1660ff1681526020018260ff1660ff168152602001935050505060405180910390a16111808383600160008561173b565b8061119657506111958383600060018561173b565b5b806111ab57506111aa83836001808561173b565b5b806111e057506111df838360017fffffffffffffffffffffffffffffffffffffffffffffffffffffffffffffffff8561173b565b5b156112225761121d6000808363ffffffff1663ffffffff16815260200190815260200160002060040160009054906101000a900460ff16826117d0565b611415565b60e16000808363ffffffff1663ffffffff16815260200190815260200160002060140160009054906101000a900460ff1660ff16141561131a5760026000808363ffffffff1663ffffffff16815260200190815260200160002060040160016101000a81548160ff0219169083600281111561129a57fe5b021790555060008060008363ffffffff1663ffffffff16815260200190815260200160002060040160006101000a81548160ff021916908360ff1602179055507fe30a7197f4bcf77a0500f4d49e711083bfc4107c06942bf9ca7dd2d678fefab76000604051808260ff16815260200191505060405180910390a1611414565b60016000808363ffffffff1663ffffffff16815260200190815260200160002060040160009054906101000a900460ff1660ff1614156113945760026000808363ffffffff1663ffffffff16815260200190815260200160002060040160006101000a81548160ff021916908360ff1602179055506113d0565b60016000808363ffffffff1663ffffffff16815260200190815260200160002060040160006101000a81548160ff021916908360ff1602179055505b60016000808363ffffffff1663ffffffff16815260200190815260200160002060040160016101000a81548160ff0219169083600281111561140e57fe5b02179055505b5b505050565b60008060028081111561142957fe5b6000808563ffffffff1663ffffffff16815260200190815260200160002060040160019054906101000a900460ff16600281111561146357fe5b14806114b357506000600281111561147757fe5b6000808563ffffffff1663ffffffff16815260200190815260200160002060040160019054906101000a900460ff1660028111156114b157fe5b145b1515611527576040517f08c379a00000000000000000000000000000000000000000000000000000000081526004018080602001828103825260138152602001807f5468652067616d6520697320706c6179696e670000000000000000000000000081525060200191505060405180910390fd5b60008060008563ffffffff1663ffffffff16815260200190815260200160002060140160019054906101000a900460ff1660ff1611151561156757600080fd5b6000808463ffffffff1663ffffffff16815260200190815260200160002060000160016000808663ffffffff1663ffffffff16815260200190815260200160002060140160019054906101000a900460ff160360ff166002811015156115c957fe5b6002020191503373ffffffffffffffffffffffffffffffffffffffff168260000160009054906101000a900473ffffffffffffffffffffffffffffffffffffffff1673ffffffffffffffffffffffffffffffffffffffff1614151561162d57600080fd5b816001015490506000811115156116ac576040517f08c379a00000000000000000000000000000000000000000000000000000000081526004018080602001828103825260178152602001807f596f75206861766520676f7420796f7572206d6f6e657900000000000000000081525060200191505060405180910390fd5b803073ffffffffffffffffffffffffffffffffffffffff1631101515156116cf57fe5b3373ffffffffffffffffffffffffffffffffffffffff166108fc829081150290604051600060405180830381858888f19350505050158015611715573d6000803e3d6000fd5b50505050565b6000600f8360ff161080156117335750600f8260ff16105b905092915050565b6000806000905061174f8787878787611cb3565b8101905060016117a68888887fffffffffffffffffffffffffffffffffffffffffffffffffffffffffffffffff02887fffffffffffffffffffffffffffffffffffffffffffffffffffffffffffffffff0288611cb3565b038101905060058160ff161015156117c157600191506117c6565b600091505b5095945050505050565b8160ff166000111580156117e8575060028260ff1611155b151561185c576040517f08c379a00000000000000000000000000000000000000000000000000000000081526004018080602001828103825260148152602001807f696e76616c69642077696e6e657220737461746500000000000000000000000081525060200191505060405180910390fd5b816000808363ffffffff1663ffffffff16815260200190815260200160002060140160016101000a81548160ff021916908360ff16021790555060008060008363ffffffff1663ffffffff16815260200190815260200160002060140160019054906101000a900460ff1660ff16141515611caf5760026000808363ffffffff1663ffffffff16815260200190815260200160002060040160016101000a81548160ff0219169083600281111561190f57fe5b021790555060008060008363ffffffff1663ffffffff16815260200190815260200160002060040160006101000a81548160ff021916908360ff16021790555060016000808363ffffffff1663ffffffff16815260200190815260200160002060140160019054906101000a900460ff1660ff161415611ae857600160009054906101000a90046fffffffffffffffffffffffffffffffff166fffffffffffffffffffffffffffffffff166000808363ffffffff1663ffffffff16815260200190815260200160002060000160016002811015156119e957fe5b6002020160010154101515156119fb57fe5b600160009054906101000a90046fffffffffffffffffffffffffffffffff166fffffffffffffffffffffffffffffffff166000808363ffffffff1663ffffffff1681526020019081526020016000206000016001600281101515611a5b57fe5b6002020160010160008282540392505081905550600160009054906101000a90046fffffffffffffffffffffffffffffffff166fffffffffffffffffffffffffffffffff166000808363ffffffff1663ffffffff1681526020019081526020016000206000016000600281101515611acf57fe5b6002020160010160008282540192505081905550611c43565b600160009054906101000a90046fffffffffffffffffffffffffffffffff166fffffffffffffffffffffffffffffffff166000808363ffffffff1663ffffffff1681526020019081526020016000206000016000600281101515611b4857fe5b600202016001015410151515611b5a57fe5b600160009054906101000a90046fffffffffffffffffffffffffffffffff166fffffffffffffffffffffffffffffffff166000808363ffffffff1663ffffffff1681526020019081526020016000206000016000600281101515611bba57fe5b6002020160010160008282540392505081905550600160009054906101000a90046fffffffffffffffffffffffffffffffff166fffffffffffffffffffffffffffffffff166000808363ffffffff1663ffffffff1681526020019081526020016000206000016001600281101515611c2e57fe5b60020201600101600082825401925050819055505b7fe30a7197f4bcf77a0500f4d49e711083bfc4107c06942bf9ca7dd2d678fefab76000808363ffffffff1663ffffffff16815260200190815260200160002060140160019054906101000a900460ff16604051808260ff1660ff16815260200191505060405180910390a15b5050565b600080600080600192505b60058360ff16111515611dcb578260ff1687028960000b0191508260ff1686028860000b019050611cef828261171b565b8015611dae57506000808663ffffffff1663ffffffff1681526020019081526020016000206005018960ff16600f81101515611d2757fe5b018860ff16600f81101515611d3857fe5b602091828204019190069054906101000a900460ff1660ff166000808763ffffffff1663ffffffff1681526020019081526020016000206005018360ff16600f81101515611d8257fe5b018260ff16600f81101515611d9357fe5b602091828204019190069054906101000a900460ff1660ff16145b15611dbe57600183019250611dc6565b829350611dcc565b611cbe565b5b50505095945050505050565b611c2060405190810160405280600f905b611df1611e07565b815260200190600190039081611de95790505090565b6101e060405190810160405280600f906020820280388339808201915050905050905600a165627a7a72305820ae9e80d07deb3f76086f757a499aa3fbedb6938389ba05f0e357fec383a281c90029",
  "source": "pragma solidity ^0.4.23;\n\ncontract Gobang {\n    //游戏状态：0-未开始，1-游戏中，2-已结束\n    enum GameStatus {start, playing, over}\n\n    uint constant boardSize = 15;\n\n    struct Player {\n        address id;\n        uint money;\n    }\n    struct Room {\n        Player[2] players;\n        //是哪个选手的轮次:0-noone;1-player1;2-player2\n        uint8 playerTurn;\n        GameStatus playStatus;\n        uint8[boardSize][boardSize] chessboard;\n        //统计棋子的数量\n        uint8 stone_num;\n        uint8 winner;\n    }\n    //房间号对应了两位玩家\n    mapping(uint32=>Room) public rooms;\n\n    uint128 BET_MONEY = 1 trx;\n\n    event OneStep(uint8 x, uint8 y, uint8 playerTurn);\n    event GameStart();\n    event GameOver(uint8 winner);\n\n    function createRoom(uint32 _roomId) public payable {\n        require(_roomId > 0, \"room id must greater than zero\");\n        require(rooms[_roomId].players[0].id == 0x0, \"this room is not empty\");\n        require(msg.value >= BET_MONEY, \"need 1 ether bet fund\");\n        rooms[_roomId].players[0].id = msg.sender;\n        rooms[_roomId].players[0].money = msg.value;\n    }\n\n    //加入游戏\n    function joinGame(uint32 _roomId) public payable{\n        require(_roomId > 0);\n        require(rooms[_roomId].players[0].id != 0x0 , \"this room is empty\");\n        require(rooms[_roomId].players[1].id == 0x0, \"there two players in the room\");\n        require(msg.value >= BET_MONEY, \"need 1 ether bet fund\");\n\n        rooms[_roomId].players[1].id = msg.sender;\n        rooms[_roomId].players[1].money = msg.value;\n        rooms[_roomId].playStatus = GameStatus.playing;\n        rooms[_roomId].playerTurn = 1;\n        emit GameStart();\n    }\n\n    //玩家落子\n    function oneStep(uint8 _x, uint8 _y, uint32 _roomId) public {\n        require(rooms[_roomId].playStatus != GameStatus.over, \"Game is over\");\n        require(rooms[_roomId].playStatus != GameStatus.start, \"Game is preparing\");\n        require(msg.sender == rooms[_roomId].players[rooms[_roomId].playerTurn - 1].id, \"Not your turn\");\n        require(checkBoundary(_x, _y), \"Out of boundary\");\n        require(rooms[_roomId].chessboard[_x][_y] == 0, \"Can not move chess here\");\n\n        //放置棋子\n        rooms[_roomId].chessboard[_x][_y] = rooms[_roomId].playerTurn;\n        rooms[_roomId].stone_num++;\n        emit OneStep(_x, _y, rooms[_roomId].playerTurn);\n\n        // 检查是否五子连珠\n        if (checkFive(_x, _y, 1, 0, _roomId) || // 水平方向\n        checkFive(_x, _y, 0, 1, _roomId) || // 垂直方向\n        checkFive(_x, _y, 1, 1, _roomId) || // 左上到右下方向\n        checkFive(_x, _y, 1, - 1, _roomId)) {// 右上到左下方向\n            winGame(rooms[_roomId].playerTurn, _roomId);\n            // 五子连珠达成，当前用户胜利\n            return;\n        }\n\n        if (rooms[_roomId].stone_num == 225) {\n            // 棋盘放满，和局\n            rooms[_roomId].playStatus = GameStatus.over;\n            rooms[_roomId].playerTurn = 0;\n            emit GameOver(0);\n        }\n        else {\n            // 修改下一步棋的落子方\n            if (rooms[_roomId].playerTurn == 1) {\n                rooms[_roomId].playerTurn = 2;\n            }\n            else {\n                rooms[_roomId].playerTurn = 1;\n            }\n            rooms[_roomId].playStatus = GameStatus.playing;\n        }\n    }\n\n    function getNewestState(uint32 _roomId) public view returns (uint8, address, address, GameStatus, uint8[15][15]) {\n        return (rooms[_roomId].playerTurn, rooms[_roomId].players[0].id, rooms[_roomId].players[1].id, rooms[_roomId].playStatus, rooms[_roomId].chessboard);\n    }\n\n    function getMyMoney(uint32 _roomId) payable public  {\n        require(rooms[_roomId].playStatus == GameStatus.over || rooms[_roomId].playStatus == GameStatus.start, \"The game is playing\");\n        require(rooms[_roomId].winner > 0);\n        Player storage player = rooms[_roomId].players[rooms[_roomId].winner - 1];\n        require(player.id == msg.sender);\n        uint senderMoney = player.money;\n        require(senderMoney > 0, \"You have got your money\");\n        assert(address(this).balance >= senderMoney);\n        address(msg.sender).transfer(senderMoney);\n    }\n\n    function getSomething() view public returns (uint something)  {\n        return address(this).balance;\n    }\n\n    //检查边界\n    function checkBoundary(uint8 _x, uint8 _y) private pure returns (bool) {\n        return (_x < boardSize && _y < boardSize);\n    }\n\n    //检查是否五子连珠\n    function checkFive(uint8 _x, uint8 _y, int _xdir, int _ydir, uint32 _roomId) private view returns (bool) {\n        uint8 count = 0;\n        count += countChess(_x, _y, _xdir, _ydir, _roomId);\n        // 检查反方向\n        count += countChess(_x, _y, - 1 * _xdir, - 1 * _ydir, _roomId) - 1;\n        if (count >= 5) {\n            return true;\n        }\n        return false;\n    }\n\n    //数棋子的数量\n    function countChess(uint8 _x, uint8 _y, int _xdir, int _ydir, uint32 _roomId) private view returns (uint8) {\n        uint8 count = 1;\n        while (count <= 5) {\n            uint8 x = uint8(int8(_x) + _xdir * count);\n            uint8 y = uint8(int8(_y) + _ydir * count);\n            if (checkBoundary(x, y) && rooms[_roomId].chessboard[x][y] == rooms[_roomId].chessboard[_x][_y]) {\n                count += 1;\n            }\n            else {\n                return count;\n            }\n        }\n    }\n\n    //标记胜出者\n    function winGame(uint8 _winner, uint32 _roomId) private {\n        require(0 <= _winner && _winner <= 2, \"invalid winner state\");\n        rooms[_roomId].winner = _winner;\n        // 游戏结束\n        if (rooms[_roomId].winner != 0) {\n            rooms[_roomId].playStatus = GameStatus.over;\n            rooms[_roomId].playerTurn = 0;\n            if (rooms[_roomId].winner == 1) {\n                assert(rooms[_roomId].players[1].money >= BET_MONEY);\n                rooms[_roomId].players[1].money -= BET_MONEY;\n                rooms[_roomId].players[0].money += BET_MONEY;\n            }else {\n                assert(rooms[_roomId].players[0].money >= BET_MONEY);\n                rooms[_roomId].players[0].money -= BET_MONEY;\n                rooms[_roomId].players[1].money += BET_MONEY;\n            }\n            emit GameOver(rooms[_roomId].winner);\n        }\n    }\n}\n",
  "sourcePath": "/Users/wangguigen/git/tronbox_gobang/contracts/Gobang.sol",
  "compiler": {
    "name": "solc",
    "version": "0.4.24-develop.2018.8.28+commit.3ba0cdec.mod.Emscripten.clang"
  },
  "schemaVersion": "2.0.1",
  "updatedAt": "2019-01-01T17:13:30.734Z"
}